{
  "_format": "hh-sol-artifact-1",
  "contractName": "NFTMarketplace",
  "sourceName": "contracts/NFTMarketplace.sol",
  "abi": [
    {
      "inputs": [],
      "stateMutability": "nonpayable",
      "type": "constructor"
    },
    {
      "anonymous": false,
      "inputs": [
        {
          "indexed": true,
          "internalType": "address",
          "name": "owner",
          "type": "address"
        },
        {
          "indexed": true,
          "internalType": "address",
          "name": "approved",
          "type": "address"
        },
        {
          "indexed": true,
          "internalType": "uint256",
          "name": "tokenId",
          "type": "uint256"
        }
      ],
      "name": "Approval",
      "type": "event"
    },
    {
      "anonymous": false,
      "inputs": [
        {
          "indexed": true,
          "internalType": "address",
          "name": "owner",
          "type": "address"
        },
        {
          "indexed": true,
          "internalType": "address",
          "name": "operator",
          "type": "address"
        },
        {
          "indexed": false,
          "internalType": "bool",
          "name": "approved",
          "type": "bool"
        }
      ],
      "name": "ApprovalForAll",
      "type": "event"
    },
    {
      "anonymous": false,
      "inputs": [
        {
          "indexed": true,
          "internalType": "address",
          "name": "from",
          "type": "address"
        },
        {
          "indexed": true,
          "internalType": "address",
          "name": "to",
          "type": "address"
        },
        {
          "indexed": true,
          "internalType": "uint256",
          "name": "tokenId",
          "type": "uint256"
        }
      ],
      "name": "Transfer",
      "type": "event"
    },
    {
      "inputs": [
        {
          "internalType": "address",
          "name": "to",
          "type": "address"
        },
        {
          "internalType": "uint256",
          "name": "tokenId",
          "type": "uint256"
        }
      ],
      "name": "approve",
      "outputs": [],
      "stateMutability": "nonpayable",
      "type": "function"
    },
    {
      "inputs": [
        {
          "internalType": "address",
          "name": "owner",
          "type": "address"
        }
      ],
      "name": "balanceOf",
      "outputs": [
        {
          "internalType": "uint256",
          "name": "",
          "type": "uint256"
        }
      ],
      "stateMutability": "view",
      "type": "function"
    },
    {
      "inputs": [
        {
          "internalType": "string",
          "name": "tokenURI",
          "type": "string"
        },
        {
          "internalType": "uint256",
          "name": "price",
          "type": "uint256"
        }
      ],
      "name": "createToken",
      "outputs": [
        {
          "internalType": "uint256",
          "name": "",
          "type": "uint256"
        }
      ],
      "stateMutability": "payable",
      "type": "function"
    },
    {
      "inputs": [
        {
          "internalType": "uint256",
          "name": "tokenId",
          "type": "uint256"
        }
      ],
      "name": "execureSale",
      "outputs": [],
      "stateMutability": "payable",
      "type": "function"
    },
    {
      "inputs": [],
      "name": "getAllNFTs",
      "outputs": [
        {
          "components": [
            {
              "internalType": "uint256",
              "name": "tokenId",
              "type": "uint256"
            },
            {
              "internalType": "address payable",
              "name": "owner",
              "type": "address"
            },
            {
              "internalType": "address payable",
              "name": "seller",
              "type": "address"
            },
            {
              "internalType": "uint256",
              "name": "price",
              "type": "uint256"
            },
            {
              "internalType": "bool",
              "name": "currentlyListed",
              "type": "bool"
            }
          ],
          "internalType": "struct NFTMarketplace.ListedToken[]",
          "name": "",
          "type": "tuple[]"
        }
      ],
      "stateMutability": "view",
      "type": "function"
    },
    {
      "inputs": [
        {
          "internalType": "uint256",
          "name": "tokenId",
          "type": "uint256"
        }
      ],
      "name": "getApproved",
      "outputs": [
        {
          "internalType": "address",
          "name": "",
          "type": "address"
        }
      ],
      "stateMutability": "view",
      "type": "function"
    },
    {
      "inputs": [],
      "name": "getCurrentToken",
      "outputs": [
        {
          "internalType": "uint256",
          "name": "",
          "type": "uint256"
        }
      ],
      "stateMutability": "view",
      "type": "function"
    },
    {
      "inputs": [],
      "name": "getLatestIdToListedToken",
      "outputs": [
        {
          "components": [
            {
              "internalType": "uint256",
              "name": "tokenId",
              "type": "uint256"
            },
            {
              "internalType": "address payable",
              "name": "owner",
              "type": "address"
            },
            {
              "internalType": "address payable",
              "name": "seller",
              "type": "address"
            },
            {
              "internalType": "uint256",
              "name": "price",
              "type": "uint256"
            },
            {
              "internalType": "bool",
              "name": "currentlyListed",
              "type": "bool"
            }
          ],
          "internalType": "struct NFTMarketplace.ListedToken",
          "name": "",
          "type": "tuple"
        }
      ],
      "stateMutability": "view",
      "type": "function"
    },
    {
      "inputs": [],
      "name": "getListPrice",
      "outputs": [
        {
          "internalType": "uint256",
          "name": "",
          "type": "uint256"
        }
      ],
      "stateMutability": "view",
      "type": "function"
    },
    {
      "inputs": [],
      "name": "getMyNFTs",
      "outputs": [
        {
          "components": [
            {
              "internalType": "uint256",
              "name": "tokenId",
              "type": "uint256"
            },
            {
              "internalType": "address payable",
              "name": "owner",
              "type": "address"
            },
            {
              "internalType": "address payable",
              "name": "seller",
              "type": "address"
            },
            {
              "internalType": "uint256",
              "name": "price",
              "type": "uint256"
            },
            {
              "internalType": "bool",
              "name": "currentlyListed",
              "type": "bool"
            }
          ],
          "internalType": "struct NFTMarketplace.ListedToken[]",
          "name": "",
          "type": "tuple[]"
        }
      ],
      "stateMutability": "view",
      "type": "function"
    },
    {
      "inputs": [
        {
          "internalType": "address",
          "name": "owner",
          "type": "address"
        },
        {
          "internalType": "address",
          "name": "operator",
          "type": "address"
        }
      ],
      "name": "isApprovedForAll",
      "outputs": [
        {
          "internalType": "bool",
          "name": "",
          "type": "bool"
        }
      ],
      "stateMutability": "view",
      "type": "function"
    },
    {
      "inputs": [],
      "name": "name",
      "outputs": [
        {
          "internalType": "string",
          "name": "",
          "type": "string"
        }
      ],
      "stateMutability": "view",
      "type": "function"
    },
    {
      "inputs": [
        {
          "internalType": "uint256",
          "name": "tokenId",
          "type": "uint256"
        }
      ],
      "name": "ownerOf",
      "outputs": [
        {
          "internalType": "address",
          "name": "",
          "type": "address"
        }
      ],
      "stateMutability": "view",
      "type": "function"
    },
    {
      "inputs": [
        {
          "internalType": "address",
          "name": "from",
          "type": "address"
        },
        {
          "internalType": "address",
          "name": "to",
          "type": "address"
        },
        {
          "internalType": "uint256",
          "name": "tokenId",
          "type": "uint256"
        }
      ],
      "name": "safeTransferFrom",
      "outputs": [],
      "stateMutability": "nonpayable",
      "type": "function"
    },
    {
      "inputs": [
        {
          "internalType": "address",
          "name": "from",
          "type": "address"
        },
        {
          "internalType": "address",
          "name": "to",
          "type": "address"
        },
        {
          "internalType": "uint256",
          "name": "tokenId",
          "type": "uint256"
        },
        {
          "internalType": "bytes",
          "name": "data",
          "type": "bytes"
        }
      ],
      "name": "safeTransferFrom",
      "outputs": [],
      "stateMutability": "nonpayable",
      "type": "function"
    },
    {
      "inputs": [
        {
          "internalType": "address",
          "name": "operator",
          "type": "address"
        },
        {
          "internalType": "bool",
          "name": "approved",
          "type": "bool"
        }
      ],
      "name": "setApprovalForAll",
      "outputs": [],
      "stateMutability": "nonpayable",
      "type": "function"
    },
    {
      "inputs": [
        {
          "internalType": "bytes4",
          "name": "interfaceId",
          "type": "bytes4"
        }
      ],
      "name": "supportsInterface",
      "outputs": [
        {
          "internalType": "bool",
          "name": "",
          "type": "bool"
        }
      ],
      "stateMutability": "view",
      "type": "function"
    },
    {
      "inputs": [],
      "name": "symbol",
      "outputs": [
        {
          "internalType": "string",
          "name": "",
          "type": "string"
        }
      ],
      "stateMutability": "view",
      "type": "function"
    },
    {
      "inputs": [
        {
          "internalType": "uint256",
          "name": "tokenId",
          "type": "uint256"
        }
      ],
      "name": "tokenURI",
      "outputs": [
        {
          "internalType": "string",
          "name": "",
          "type": "string"
        }
      ],
      "stateMutability": "view",
      "type": "function"
    },
    {
      "inputs": [
        {
          "internalType": "address",
          "name": "from",
          "type": "address"
        },
        {
          "internalType": "address",
          "name": "to",
          "type": "address"
        },
        {
          "internalType": "uint256",
          "name": "tokenId",
          "type": "uint256"
        }
      ],
      "name": "transferFrom",
      "outputs": [],
      "stateMutability": "nonpayable",
      "type": "function"
    },
    {
      "inputs": [
        {
          "internalType": "uint256",
          "name": "_listPrice",
          "type": "uint256"
        }
      ],
      "name": "updateListPrice",
      "outputs": [],
      "stateMutability": "payable",
      "type": "function"
    }
  ],
  "bytecode": "0x6080604052662386f26fc10000600a553480156200001c57600080fd5b50604080518082018252600e81526d4e46544d61726b6574706c61636560901b6020808301918252835180850190945260048452634e46544d60e01b9084015281519192916200006f91600091620000a0565b50805162000085906001906020840190620000a0565b5050600780546001600160a01b031916331790555062000183565b828054620000ae9062000146565b90600052602060002090601f016020900481019282620000d257600085556200011d565b82601f10620000ed57805160ff19168380011785556200011d565b828001600101855582156200011d579182015b828111156200011d57825182559160200191906001019062000100565b506200012b9291506200012f565b5090565b5b808211156200012b576000815560010162000130565b600181811c908216806200015b57607f821691505b602082108114156200017d57634e487b7160e01b600052602260045260246000fd5b50919050565b611f9280620001936000396000f3fe60806040526004361061012a5760003560e01c806372b3b620116100ab578063c87b56dd1161006f578063c87b56dd1461031c578063d1a88ae51461033c578063e0391b091461035e578063e985e9c514610373578063ef2d1746146103bc578063f13d6e6b146103d157600080fd5b806372b3b620146102a157806395d89b41146102b4578063a22cb465146102c9578063b88d4fde146102e9578063c322579c1461030957600080fd5b806342842e0e116100f257806342842e0e14610200578063629cb2e4146102205780636352211e1461024257806368f1945f1461026257806370a082311461028157600080fd5b806301ffc9a71461012f57806306fdde0314610164578063081812fc14610186578063095ea7b3146101be57806323b872dd146101e0575b600080fd5b34801561013b57600080fd5b5061014f61014a366004611b9e565b6103e4565b60405190151581526020015b60405180910390f35b34801561017057600080fd5b50610179610436565b60405161015b9190611d6a565b34801561019257600080fd5b506101a66101a1366004611c2c565b6104c8565b6040516001600160a01b03909116815260200161015b565b3480156101ca57600080fd5b506101de6101d9366004611b75565b6104ef565b005b3480156101ec57600080fd5b506101de6101fb366004611a87565b61060a565b34801561020c57600080fd5b506101de61021b366004611a87565b61063b565b34801561022c57600080fd5b50610235610656565b60405161015b9190611d1c565b34801561024e57600080fd5b506101a661025d366004611c2c565b6108bb565b34801561026e57600080fd5b50600a545b60405190815260200161015b565b34801561028d57600080fd5b5061027361029c366004611a3b565b61091b565b6102736102af366004611bd6565b6109a1565b3480156102c057600080fd5b50610179610a84565b3480156102d557600080fd5b506101de6102e4366004611b3b565b610a93565b3480156102f557600080fd5b506101de610304366004611ac2565b610aa2565b6101de610317366004611c2c565b610ada565b34801561032857600080fd5b50610179610337366004611c2c565b610b4a565b34801561034857600080fd5b50610351610c5b565b60405161015b9190611e1d565b34801561036a57600080fd5b50610235610cf5565b34801561037f57600080fd5b5061014f61038e366004611a55565b6001600160a01b03918216600090815260056020908152604080832093909416825291909152205460ff1690565b3480156103c857600080fd5b50610273610e5c565b6101de6103df366004611c2c565b610e6c565b60006001600160e01b031982166380ac58cd60e01b148061041557506001600160e01b03198216635b5e139f60e01b145b8061043057506301ffc9a760e01b6001600160e01b03198316145b92915050565b60606000805461044590611e9a565b80601f016020809104026020016040519081016040528092919081815260200182805461047190611e9a565b80156104be5780601f10610493576101008083540402835291602001916104be565b820191906000526020600020905b8154815290600101906020018083116104a157829003601f168201915b5050505050905090565b60006104d382610fc4565b506000908152600460205260409020546001600160a01b031690565b60006104fa826108bb565b9050806001600160a01b0316836001600160a01b0316141561056d5760405162461bcd60e51b815260206004820152602160248201527f4552433732313a20617070726f76616c20746f2063757272656e74206f776e656044820152603960f91b60648201526084015b60405180910390fd5b336001600160a01b03821614806105895750610589813361038e565b6105fb5760405162461bcd60e51b815260206004820152603e60248201527f4552433732313a20617070726f76652063616c6c6572206973206e6f7420746f60448201527f6b656e206f776e6572206e6f7220617070726f76656420666f7220616c6c00006064820152608401610564565b6106058383611026565b505050565b6106143382611094565b6106305760405162461bcd60e51b815260040161056490611dcf565b610605838383611112565b61060583838360405180602001604052806000815250610aa2565b6060600061066360085490565b905060008060005b838110156106fb5733600b6000610683846001611e2b565b81526020810191909152604001600020600101546001600160a01b031614806106d6575033600b60006106b7846001611e2b565b81526020810191909152604001600020600201546001600160a01b0316145b156106e9576106e6600184611e2b565b92505b806106f381611ed5565b91505061066b565b5060008267ffffffffffffffff81111561072557634e487b7160e01b600052604160045260246000fd5b60405190808252806020026020018201604052801561077e57816020015b6040805160a0810182526000808252602080830182905292820181905260608201819052608082015282526000199092019101816107435790505b50905060005b848110156108b25733600b600061079c846001611e2b565b81526020810191909152604001600020600101546001600160a01b031614806107ef575033600b60006107d0846001611e2b565b81526020810191909152604001600020600201546001600160a01b0316145b156108a0576000610801826001611e2b565b6000818152600b6020908152604091829020825160a0810184528154815260018201546001600160a01b039081169382019390935260028201549092169282019290925260038201546060820152600482015460ff16151560808201528551929350909185908790811061088557634e487b7160e01b600052603260045260246000fd5b602090810291909101015261089b600186611e2b565b945050505b806108aa81611ed5565b915050610784565b50949350505050565b6000818152600260205260408120546001600160a01b0316806104305760405162461bcd60e51b8152602060048201526018602482015277115490cdcc8c4e881a5b9d985b1a59081d1bdad95b88125160421b6044820152606401610564565b60006001600160a01b0382166109855760405162461bcd60e51b815260206004820152602960248201527f4552433732313a2061646472657373207a65726f206973206e6f7420612076616044820152683634b21037bbb732b960b91b6064820152608401610564565b506001600160a01b031660009081526003602052604090205490565b6000600a5434146109e85760405162461bcd60e51b815260206004820152601160248201527029b2b7321032b737bab3b41032ba3432b960791b6044820152606401610564565b60008211610a445760405162461bcd60e51b815260206004820152602360248201527f4d616b65207375726520746865207072696365206973206e6f74206e6567617460448201526269766560e81b6064820152608401610564565b610a52600880546001019055565b6000610a5d60085490565b9050610a6933826112ae565b610a7381856112c8565b610a7d8184611362565b9392505050565b60606001805461044590611e9a565b610a9e3383836113ff565b5050565b610aac3383611094565b610ac85760405162461bcd60e51b815260040161056490611dcf565b610ad4848484846114ce565b50505050565b6007546001600160a01b03163314610b455760405162461bcd60e51b815260206004820152602860248201527f4f6e6c79204f776e65722063616e207570646174652074686973206c697374696044820152676e6720707269636560c01b6064820152608401610564565b600a55565b6060610b5582610fc4565b60008281526006602052604081208054610b6e90611e9a565b80601f0160208091040260200160405190810160405280929190818152602001828054610b9a90611e9a565b8015610be75780601f10610bbc57610100808354040283529160200191610be7565b820191906000526020600020905b815481529060010190602001808311610bca57829003601f168201915b505050505090506000610c0560408051602081019091526000815290565b9050805160001415610c18575092915050565b815115610c4a578082604051602001610c32929190611cb0565b60405160208183030381529060405292505050919050565b610c5384611501565b949350505050565b6040805160a0810182526000808252602082018190529181018290526060810182905260808101919091526000610c9160085490565b6000908152600b6020908152604091829020825160a0810184528154815260018201546001600160a01b03908116938201939093526002820154909216928201929092526003820154606082015260049091015460ff161515608082015292915050565b60606000610d0260085490565b905060008167ffffffffffffffff811115610d2d57634e487b7160e01b600052604160045260246000fd5b604051908082528060200260200182016040528015610d8657816020015b6040805160a081018252600080825260208083018290529282018190526060820181905260808201528252600019909201910181610d4b5790505b5090506000805b83811015610e53576000610da2826001611e2b565b6000818152600b6020908152604091829020825160a0810184528154815260018201546001600160a01b039081169382019390935260028201549092169282019290925260038201546060820152600482015460ff161515608082015286519293509091869086908110610e2657634e487b7160e01b600052603260045260246000fd5b6020908102919091010152610e3c600185611e2b565b935050508080610e4b90611ed5565b915050610d8d565b50909392505050565b6000610e6760085490565b905090565b6000818152600b6020526040902060030154348114610ef35760405162461bcd60e51b815260206004820152603b60248201527f506c65617365207375626d6974207468652061736b696e67207072696365206660448201527f6f72204e465420696e206f7264657220746f20707572636861736500000000006064820152608401610564565b6000828152600b602052604090206002810180546004909201805460ff191660011790556001600160a01b03198216331790556001600160a01b0316610f3d600980546001019055565b610f48303385611112565b610f5230846104ef565b600754600a546040516001600160a01b039092169181156108fc0291906000818181858888f19350505050158015610f8e573d6000803e3d6000fd5b506040516001600160a01b038216903480156108fc02916000818181858888f19350505050158015610ad4573d6000803e3d6000fd5b6000818152600260205260409020546001600160a01b03166110235760405162461bcd60e51b8152602060048201526018602482015277115490cdcc8c4e881a5b9d985b1a59081d1bdad95b88125160421b6044820152606401610564565b50565b600081815260046020526040902080546001600160a01b0319166001600160a01b038416908117909155819061105b826108bb565b6001600160a01b03167f8c5be1e5ebec7d5bd14f71427d1e84f3dd0314c0f7b2291e5b200ac8c7c3b92560405160405180910390a45050565b6000806110a0836108bb565b9050806001600160a01b0316846001600160a01b031614806110e757506001600160a01b0380821660009081526005602090815260408083209388168352929052205460ff165b80610c535750836001600160a01b0316611100846104c8565b6001600160a01b031614949350505050565b826001600160a01b0316611125826108bb565b6001600160a01b0316146111895760405162461bcd60e51b815260206004820152602560248201527f4552433732313a207472616e736665722066726f6d20696e636f72726563742060448201526437bbb732b960d91b6064820152608401610564565b6001600160a01b0382166111eb5760405162461bcd60e51b8152602060048201526024808201527f4552433732313a207472616e7366657220746f20746865207a65726f206164646044820152637265737360e01b6064820152608401610564565b6111f6600082611026565b6001600160a01b038316600090815260036020526040812080546001929061121f908490611e57565b90915550506001600160a01b038216600090815260036020526040812080546001929061124d908490611e2b565b909155505060008181526002602052604080822080546001600160a01b0319166001600160a01b0386811691821790925591518493918716917fddf252ad1be2c89b69c2b068fc378daa952ba7f163c4a11628f55a4df523b3ef91a4505050565b610a9e828260405180602001604052806000815250611574565b6000828152600260205260409020546001600160a01b03166113435760405162461bcd60e51b815260206004820152602e60248201527f45524337323155524953746f726167653a2055524920736574206f66206e6f6e60448201526d32bc34b9ba32b73a103a37b5b2b760911b6064820152608401610564565b6000828152600660209081526040909120825161060592840190611910565b6040805160a081018252838152306020808301828152338486018181526060860188815260016080880181815260008c8152600b9097529890952096518755925193860180546001600160a01b039586166001600160a01b03199182161790915590516002870180549190951691161790925551600384015592516004909201805492151560ff1990931692909217909155610a9e919084611112565b816001600160a01b0316836001600160a01b031614156114615760405162461bcd60e51b815260206004820152601960248201527f4552433732313a20617070726f766520746f2063616c6c6572000000000000006044820152606401610564565b6001600160a01b03838116600081815260056020908152604080832094871680845294825291829020805460ff191686151590811790915591519182527f17307eab39ab6107e8899845ad3d59bd9653f200f220920489ca2b5937696c31910160405180910390a3505050565b6114d9848484611112565b6114e5848484846115a7565b610ad45760405162461bcd60e51b815260040161056490611d7d565b606061150c82610fc4565b600061152360408051602081019091526000815290565b905060008151116115435760405180602001604052806000815250610a7d565b8061154d846116b4565b60405160200161155e929190611cb0565b6040516020818303038152906040529392505050565b61157e83836117ce565b61158b60008484846115a7565b6106055760405162461bcd60e51b815260040161056490611d7d565b60006001600160a01b0384163b156116a957604051630a85bd0160e11b81526001600160a01b0385169063150b7a02906115eb903390899088908890600401611cdf565b602060405180830381600087803b15801561160557600080fd5b505af1925050508015611635575060408051601f3d908101601f1916820190925261163291810190611bba565b60015b61168f573d808015611663576040519150601f19603f3d011682016040523d82523d6000602084013e611668565b606091505b5080516116875760405162461bcd60e51b815260040161056490611d7d565b805181602001fd5b6001600160e01b031916630a85bd0160e11b149050610c53565b506001949350505050565b6060816116d85750506040805180820190915260018152600360fc1b602082015290565b8160005b811561170257806116ec81611ed5565b91506116fb9050600a83611e43565b91506116dc565b60008167ffffffffffffffff81111561172b57634e487b7160e01b600052604160045260246000fd5b6040519080825280601f01601f191660200182016040528015611755576020820181803683370190505b5090505b8415610c535761176a600183611e57565b9150611777600a86611ef0565b611782906030611e2b565b60f81b8183815181106117a557634e487b7160e01b600052603260045260246000fd5b60200101906001600160f81b031916908160001a9053506117c7600a86611e43565b9450611759565b6001600160a01b0382166118245760405162461bcd60e51b815260206004820181905260248201527f4552433732313a206d696e7420746f20746865207a65726f20616464726573736044820152606401610564565b6000818152600260205260409020546001600160a01b0316156118895760405162461bcd60e51b815260206004820152601c60248201527f4552433732313a20746f6b656e20616c7265616479206d696e746564000000006044820152606401610564565b6001600160a01b03821660009081526003602052604081208054600192906118b2908490611e2b565b909155505060008181526002602052604080822080546001600160a01b0319166001600160a01b03861690811790915590518392907fddf252ad1be2c89b69c2b068fc378daa952ba7f163c4a11628f55a4df523b3ef908290a45050565b82805461191c90611e9a565b90600052602060002090601f01602090048101928261193e5760008555611984565b82601f1061195757805160ff1916838001178555611984565b82800160010185558215611984579182015b82811115611984578251825591602001919060010190611969565b50611990929150611994565b5090565b5b808211156119905760008155600101611995565b600067ffffffffffffffff808411156119c4576119c4611f30565b604051601f8501601f19908116603f011681019082821181831017156119ec576119ec611f30565b81604052809350858152868686011115611a0557600080fd5b858560208301376000602087830101525050509392505050565b80356001600160a01b0381168114611a3657600080fd5b919050565b600060208284031215611a4c578081fd5b610a7d82611a1f565b60008060408385031215611a67578081fd5b611a7083611a1f565b9150611a7e60208401611a1f565b90509250929050565b600080600060608486031215611a9b578081fd5b611aa484611a1f565b9250611ab260208501611a1f565b9150604084013590509250925092565b60008060008060808587031215611ad7578081fd5b611ae085611a1f565b9350611aee60208601611a1f565b925060408501359150606085013567ffffffffffffffff811115611b10578182fd5b8501601f81018713611b20578182fd5b611b2f878235602084016119a9565b91505092959194509250565b60008060408385031215611b4d578182fd5b611b5683611a1f565b915060208301358015158114611b6a578182fd5b809150509250929050565b60008060408385031215611b87578182fd5b611b9083611a1f565b946020939093013593505050565b600060208284031215611baf578081fd5b8135610a7d81611f46565b600060208284031215611bcb578081fd5b8151610a7d81611f46565b60008060408385031215611be8578182fd5b823567ffffffffffffffff811115611bfe578283fd5b8301601f81018513611c0e578283fd5b611c1d858235602084016119a9565b95602094909401359450505050565b600060208284031215611c3d578081fd5b5035919050565b60008151808452611c5c816020860160208601611e6e565b601f01601f19169290920160200192915050565b805182526020808201516001600160a01b039081169184019190915260408083015190911690830152606080820151908301526080908101511515910152565b60008351611cc2818460208801611e6e565b835190830190611cd6818360208801611e6e565b01949350505050565b6001600160a01b0385811682528416602082015260408101839052608060608201819052600090611d1290830184611c44565b9695505050505050565b6020808252825182820181905260009190848201906040850190845b81811015611d5e57611d4b838551611c70565b9284019260a09290920191600101611d38565b50909695505050505050565b602081526000610a7d6020830184611c44565b60208082526032908201527f4552433732313a207472616e7366657220746f206e6f6e20455243373231526560408201527131b2b4bb32b91034b6b83632b6b2b73a32b960711b606082015260800190565b6020808252602e908201527f4552433732313a2063616c6c6572206973206e6f7420746f6b656e206f776e6560408201526d1c881b9bdc88185c1c1c9bdd995960921b606082015260800190565b60a081016104308284611c70565b60008219821115611e3e57611e3e611f04565b500190565b600082611e5257611e52611f1a565b500490565b600082821015611e6957611e69611f04565b500390565b60005b83811015611e89578181015183820152602001611e71565b83811115610ad45750506000910152565b600181811c90821680611eae57607f821691505b60208210811415611ecf57634e487b7160e01b600052602260045260246000fd5b50919050565b6000600019821415611ee957611ee9611f04565b5060010190565b600082611eff57611eff611f1a565b500690565b634e487b7160e01b600052601160045260246000fd5b634e487b7160e01b600052601260045260246000fd5b634e487b7160e01b600052604160045260246000fd5b6001600160e01b03198116811461102357600080fdfea2646970667358221220702fe25bc7e88a25fd141474278aa35eaea572b88b7a354f478d7b310263a83f64736f6c63430008040033",
  "linkReferences": {},
  "deployedLinkReferences": {}
}